{
  "contractName": "CircuitBreaker",
  "abi": [
    {
      "constant": false,
      "inputs": [
        {
          "name": "newOwner",
          "type": "address"
        }
      ],
      "name": "changeOwner",
      "outputs": [],
      "payable": false,
      "stateMutability": "nonpayable",
      "type": "function"
    },
    {
      "constant": false,
      "inputs": [],
      "name": "enable",
      "outputs": [],
      "payable": false,
      "stateMutability": "nonpayable",
      "type": "function"
    },
    {
      "constant": false,
      "inputs": [],
      "name": "disable",
      "outputs": [],
      "payable": false,
      "stateMutability": "nonpayable",
      "type": "function"
    }
  ],
  "bytecode": "0x608060405260008054600160a060020a031960a060020a60ff0219909116740100000000000000000000000000000000000000001716331790556101e0806100486000396000f3006080604052600436106100565763ffffffff7c01000000000000000000000000000000000000000000000000000000006000350416632f2770db811461005b578063a3907d7114610072578063a6f9dae114610087575b600080fd5b34801561006757600080fd5b506100706100b5565b005b34801561007e57600080fd5b506100706100f9565b34801561009357600080fd5b5061007073ffffffffffffffffffffffffffffffffffffffff60043516610154565b60005473ffffffffffffffffffffffffffffffffffffffff1633146100d957600080fd5b6000805474ff000000000000000000000000000000000000000019169055565b60005473ffffffffffffffffffffffffffffffffffffffff16331461011d57600080fd5b6000805474ff0000000000000000000000000000000000000000191674010000000000000000000000000000000000000000179055565b60005473ffffffffffffffffffffffffffffffffffffffff16331461017857600080fd5b6000805473ffffffffffffffffffffffffffffffffffffffff191673ffffffffffffffffffffffffffffffffffffffff929092169190911790555600a165627a7a72305820b9772ae50e3e124b92ff47f13ae237912a8f9048bda96d8a8b7f8ba22ba002900029",
  "source": "pragma solidity ^0.4.22;\n\n/** @title Ownable Contract */\ncontract Ownable {\n  address owner;\n\n  /** @dev Constructor to set the current contract deployer as an owner */\n  constructor() public {\n    owner = msg.sender;\n  }\n\n  /** @dev Allow to change current owner\n  * @param newOwner A replacement of current owner.\n   */\n  function changeOwner(address newOwner) public onlyOwner {\n    owner = newOwner;\n  }  \n\n  /** @dev modifier to check the current owner before executing a function when used */\n  modifier onlyOwner()\n  {\n    require(owner == msg.sender);\n    _;\n  }  \n}\n\n/** @title Circuit Breaker Contract */\ncontract CircuitBreaker is Ownable {\n  bool isEnabled = true;\n\n  /** @dev A modifier to check the circuit breaker status before allowing execution of a method */\n  modifier whenEnabled()\n  {\n    require(isEnabled == true);\n    _;\n  }\n\n  /** @dev Enable the circuit breaker flag*/\n  function enable() public onlyOwner {\n    isEnabled = true;\n  }\n\n  /** @dev Disable the circuit breaker flag*/\n  function disable() public onlyOwner {\n    isEnabled = false;\n  }\n}\n\n/** @title Main Job Contract */\ncontract JobContract is CircuitBreaker {\n\n  enum JobStatus {\n    active,\n    completed,\n    cancelled,\n    inDispute\n  }\n\n  struct Job {\n    uint id;\n    address owner;\n    bytes32 ref;\n    string docHash;\n    JobStatus status;\n    uint initialJobpot;\n    uint jobpot;\n    uint appFees;\n    uint numApps;\n  }\n\n  uint private index;\n  uint internal balance;\n  Job[] internal jobs;\n\n  /** @dev Notify a creation of a job */\n  event JobCreated(bytes32 indexed ref, string docHash, uint initialJobpotPrize, uint appFees);\n  \n  /** @dev Creates a job record.\n  * @param ref External record reference to identify the job record.\n  * @param docHash IPFS external record hash.\n  * @param initialJobpotPrize The initial prize offered by job creator.\n  * @param appFees The minimum application fees when someone submits/refer a candidate for the job.\n  * @return new job ID\n  */\n  function createJob(bytes32 ref, string docHash, uint initialJobpotPrize, uint appFees) \n    public \n    payable \n    whenEnabled\n    returns(uint)\n  {\n    require(initialJobpotPrize > 0 && appFees > 0 && msg.value >= initialJobpotPrize);\n\n    uint id = index++;\n\n    Job memory job = Job(id, msg.sender, ref, docHash, JobStatus.active, initialJobpotPrize, initialJobpotPrize, appFees, 0);\n\n    jobs.push(job);\n\n    emit JobCreated(ref, docHash, initialJobpotPrize, appFees);\n    \n    return id;\n  }\n\n  /** @dev Returns count of current jobs.\n  * @return totalJobsCount The current number of jobs.\n  */\n  function getJobsCount() public view returns(uint totalJobsCount) {\n    return index;\n  }\n\n  /** @dev Returns count of current jobs.\n  * @param id The ID of a job record to return, ID is equal to current job index.\n  * @return ref Reference to an external job record data.\n  * @return docHash The IPFS reference attached with the job that contains full job details.\n  * @return status The current job status (0=active, 1=completed, 2=cancelled, 3=inDispute).\n  * @return initialJobpot The initial jobpot prize posted by job owner.\n  * @return jobpot The accomulative jobpot prize (inititalJobPot + (number of job applications * appFees)).\n  * @return appFees The min app fees to submit/refer a candidate for a posted job.\n  */\n  function getJob(uint id) public view returns(bytes32, string, int8, uint, uint, uint) {\n    return ( jobs[id].ref, jobs[id].docHash, int8(jobs[id].status), jobs[id].initialJobpot, jobs[id].jobpot, jobs[id].appFees);\n  }\n}\n",
  "sourcePath": "/Users/user/Workspace/consensys/jobpot/truffle/contracts/JobContract.sol",
  "compiler": {
    "name": "solc",
    "version": "0.4.24+commit.e67f0147.Emscripten.clang"
  },
  "schemaVersion": "2.0.1",
  "updatedAt": "2018-08-26T17:09:54.995Z"
}