{
  "contractName": "JobApplicationContract",
  "abi": [
    {
      "constant": false,
      "inputs": [
        {
          "name": "ref",
          "type": "bytes32"
        },
        {
          "name": "docHash",
          "type": "string"
        },
        {
          "name": "initialJobpotPrize",
          "type": "uint256"
        },
        {
          "name": "appFees",
          "type": "uint256"
        }
      ],
      "name": "createJob",
      "outputs": [
        {
          "name": "",
          "type": "uint256"
        }
      ],
      "payable": true,
      "stateMutability": "payable",
      "type": "function"
    },
    {
      "constant": true,
      "inputs": [
        {
          "name": "id",
          "type": "uint256"
        }
      ],
      "name": "getJob",
      "outputs": [
        {
          "name": "",
          "type": "bytes32"
        },
        {
          "name": "",
          "type": "string"
        },
        {
          "name": "",
          "type": "int8"
        },
        {
          "name": "",
          "type": "uint256"
        },
        {
          "name": "",
          "type": "uint256"
        },
        {
          "name": "",
          "type": "uint256"
        }
      ],
      "payable": false,
      "stateMutability": "view",
      "type": "function"
    },
    {
      "constant": true,
      "inputs": [],
      "name": "getJobsCount",
      "outputs": [
        {
          "name": "",
          "type": "uint256"
        }
      ],
      "payable": false,
      "stateMutability": "view",
      "type": "function"
    },
    {
      "constant": false,
      "inputs": [
        {
          "name": "jobId",
          "type": "uint256"
        },
        {
          "name": "docHash",
          "type": "bytes32"
        }
      ],
      "name": "apply",
      "outputs": [
        {
          "name": "",
          "type": "uint256"
        }
      ],
      "payable": true,
      "stateMutability": "payable",
      "type": "function"
    },
    {
      "constant": true,
      "inputs": [
        {
          "name": "jobId",
          "type": "uint256"
        }
      ],
      "name": "getJobApplicationsCount",
      "outputs": [
        {
          "name": "",
          "type": "uint256"
        }
      ],
      "payable": false,
      "stateMutability": "view",
      "type": "function"
    },
    {
      "constant": true,
      "inputs": [
        {
          "name": "jobId",
          "type": "uint256"
        },
        {
          "name": "appId",
          "type": "uint256"
        }
      ],
      "name": "getJobApplications",
      "outputs": [
        {
          "name": "",
          "type": "uint256"
        },
        {
          "name": "",
          "type": "int8"
        },
        {
          "name": "",
          "type": "address"
        },
        {
          "name": "",
          "type": "bytes32"
        }
      ],
      "payable": false,
      "stateMutability": "view",
      "type": "function"
    }
  ],
  "bytecode": "0x608060405234801561001057600080fd5b50610a11806100206000396000f3006080604052600436106100775763ffffffff7c010000000000000000000000000000000000000000000000000000000060003504166354ef6cba811461007c5780636a79e828146100a657806372b219d314610100578063b4cbbd981461015b578063bf22c45714610169578063d07e9f901461022a575b600080fd5b34801561008857600080fd5b5061009460043561023f565b60408051918252519081900360200190f35b60408051602060046024803582810135601f81018590048502860185019096528585526100949583359536956044949193909101919081908401838280828437509497505084359550505060209092013591506102519050565b34801561010c57600080fd5b5061011b600435602435610405565b60408051948552600093840b90930b602085015273ffffffffffffffffffffffffffffffffffffffff909116838301526060830152519081900360800190f35b610094600435602435610500565b34801561017557600080fd5b50610181600435610765565b604051808760001916600019168152602001806020018660000b60000b8152602001858152602001848152602001838152602001828103825287818151815260200191508051906020019080838360005b838110156101ea5781810151838201526020016101d2565b50505050905090810190601f1680156102175780820380516001836020036101000a031916815260200191505b5097505050505050505060405180910390f35b34801561023657600080fd5b506100946108e8565b60009081526004602052604090205490565b60008061025c610902565b5050600080546001808201835560408051610120810182528381523360208083019182529282018b8152606083018b81526080840188905260a084018b905260c084018b905260e084018a90526101008401889052600280549687018082559852835160099096027f405787fa12a823e0f2b7631cc41b3ba8828b3321ca811111fa75cd3aa3bb5ace810196875592517f405787fa12a823e0f2b7631cc41b3ba8828b3321ca811111fa75cd3aa3bb5acf8401805473ffffffffffffffffffffffffffffffffffffffff90921673ffffffffffffffffffffffffffffffffffffffff1990921691909117905590517f405787fa12a823e0f2b7631cc41b3ba8828b3321ca811111fa75cd3aa3bb5ad0830155518051959692959294869490936103ab937f405787fa12a823e0f2b7631cc41b3ba8828b3321ca811111fa75cd3aa3bb5ad101929091019061094d565b50608082015160048201805460ff191660018360038111156103c957fe5b021790555060a0820151600582015560c0820151600682015560e082015160078201556101009091015160089091015550909695505050505050565b60008281526004602052604081208054829182918291908690811061042657fe5b906000526020600020906005020160010154600460008881526020019081526020016000208681548110151561045857fe5b600091825260209091206004600590920201015460ff16600381111561047a57fe5b600088815260046020526040902080548890811061049457fe5b60009182526020808320600260059093020191909101548a835260049091526040909120805473ffffffffffffffffffffffffffffffffffffffff90921691899081106104dd57fe5b906000526020600020906005020160030154935093509350935092959194509250565b60008080600280548690811061051257fe5b600091825260209091206004600990920201015460ff16600381111561053457fe5b141561053f57600080fd5b600280548590811061054d57fe5b906000526020600020906009020160070154341015151561056d57600080fd5b600280548590811061057b57fe5b600091825260208083206008600990930201919091018054600181019091558683526004909152604090912080549192508291829081106105b857fe5b9060005260206000209060050201600001819055508360046000868152602001908152602001600020828154811015156105ee57fe5b90600052602060002090600502016001018190555033600460008681526020019081526020016000208281548110151561062457fe5b60009182526020808320600592909202909101600201805473ffffffffffffffffffffffffffffffffffffffff191673ffffffffffffffffffffffffffffffffffffffff949094169390931790925585815260049091526040812080548390811061068b57fe5b60009182526020909120600460059092020101805460ff191660018360038111156106b257fe5b021790555060008481526004602052604090208054849190839081106106d457fe5b60009182526020909120600360059092020101556002805461073c9190869081106106fb57fe5b90600052602060002090600902016007015460028681548110151561071c57fe5b9060005260206000209060090201600601546108ef90919063ffffffff16565b600280548690811061074a57fe5b60009182526020909120600660099092020101559392505050565b6000606060008060008060028781548110151561077e57fe5b90600052602060002090600902016002015460028881548110151561079f57fe5b90600052602060002090600902016003016002898154811015156107bf57fe5b600091825260209091206004600990920201015460ff1660038111156107e157fe5b600280548b9081106107ef57fe5b90600052602060002090600902016005015460028b81548110151561081057fe5b90600052602060002090600902016006015460028c81548110151561083157fe5b600091825260209182902060076009909202010154855460408051601f6002600019610100600187161502019094169390930492830185900485028101850190915281815291928791908301828280156108cc5780601f106108a1576101008083540402835291602001916108cc565b820191906000526020600020905b8154815290600101906020018083116108af57829003601f168201915b5050505050945095509550955095509550955091939550919395565b6000545b90565b818101828110156108fc57fe5b92915050565b60408051610120810182526000808252602082018190529181018290526060808201529060808201908152602001600081526020016000815260200160008152602001600081525090565b828054600181600116156101000203166002900490600052602060002090601f016020900481019282601f1061098e57805160ff19168380011785556109bb565b828001600101855582156109bb579182015b828111156109bb5782518255916020019190600101906109a0565b506109c79291506109cb565b5090565b6108ec91905b808211156109c757600081556001016109d15600a165627a7a723058204ae52a673d25b6571173f88c322bb1994e3a00da671dd72d207021c1a5f199b90029",
  "source": "pragma solidity ^0.4.22;\n\nimport \"./SafeMath.sol\";\nimport \"./JobContract.sol\";\n\ncontract JobApplicationContract is JobContract {\n  using SafeMath for uint;\n\n  enum ApplicationStatus {\n    active,\n    winner,\n    cancelled,\n    inDispute\n  }\n\n  struct JobApplication {\n    uint id;\n    uint jobId;\n    address owner;\n    bytes32 docHash;\n    ApplicationStatus status;\n  }\n\n  JobApplication[] internal applications;\n  mapping(uint => JobApplication[]) internal jobApplications;\n\n  function apply(uint jobId, bytes32 docHash) public payable returns(uint) {\n    require(jobs[jobId].status != JobStatus.active);\n    require(msg.value >= jobs[jobId].appFees);\n    \n    uint id = jobs[jobId].numApps++;\n    jobApplications[jobId][id].id = id;\n    jobApplications[jobId][id].jobId = jobId;\n    jobApplications[jobId][id].owner = msg.sender;\n    jobApplications[jobId][id].status = ApplicationStatus.active;\n    jobApplications[jobId][id].docHash = docHash;\n    \n    jobs[jobId].jobpot = jobs[jobId].jobpot.add(jobs[jobId].appFees);    \n\n    return id;\n  }\n\n  function getJobApplicationsCount(uint jobId) public view returns(uint) {\n    return jobApplications[jobId].length;\n  }\n\n  function getJobApplications(uint jobId, uint appId) public view returns(uint, int8, address, bytes32) {    \n    return ( \n      jobApplications[jobId][appId].jobId, \n      int8(jobApplications[jobId][appId].status),\n      jobApplications[jobId][appId].owner, \n      jobApplications[jobId][appId].docHash\n    );\n  }\n}\n",
  "sourcePath": "/Users/user/Workspace/consensys/jobpot/truffle/contracts/JobApplicationContract.sol",
  "compiler": {
    "name": "solc",
    "version": "0.4.24+commit.e67f0147.Emscripten.clang"
  },
  "schemaVersion": "2.0.1",
  "updatedAt": "2018-08-26T09:59:03.247Z"
}