{
  "contractName": "JobContract",
  "abi": [
    {
      "constant": false,
      "inputs": [],
      "name": "disable",
      "outputs": [],
      "payable": false,
      "stateMutability": "nonpayable",
      "type": "function"
    },
    {
      "constant": false,
      "inputs": [],
      "name": "enable",
      "outputs": [],
      "payable": false,
      "stateMutability": "nonpayable",
      "type": "function"
    },
    {
      "constant": false,
      "inputs": [
        {
          "name": "newOwner",
          "type": "address"
        }
      ],
      "name": "changeOwner",
      "outputs": [],
      "payable": false,
      "stateMutability": "nonpayable",
      "type": "function"
    },
    {
      "anonymous": false,
      "inputs": [
        {
          "indexed": true,
          "name": "ref",
          "type": "bytes32"
        },
        {
          "indexed": false,
          "name": "docHash",
          "type": "string"
        },
        {
          "indexed": false,
          "name": "initialJobpotPrize",
          "type": "uint256"
        },
        {
          "indexed": false,
          "name": "appFees",
          "type": "uint256"
        }
      ],
      "name": "JobCreated",
      "type": "event"
    },
    {
      "constant": false,
      "inputs": [
        {
          "name": "ref",
          "type": "bytes32"
        },
        {
          "name": "docHash",
          "type": "string"
        },
        {
          "name": "initialJobpotPrize",
          "type": "uint256"
        },
        {
          "name": "appFees",
          "type": "uint256"
        }
      ],
      "name": "createJob",
      "outputs": [
        {
          "name": "",
          "type": "uint256"
        }
      ],
      "payable": true,
      "stateMutability": "payable",
      "type": "function"
    },
    {
      "constant": true,
      "inputs": [],
      "name": "getJobsCount",
      "outputs": [
        {
          "name": "totalJobsCount",
          "type": "uint256"
        }
      ],
      "payable": false,
      "stateMutability": "view",
      "type": "function"
    },
    {
      "constant": true,
      "inputs": [
        {
          "name": "id",
          "type": "uint256"
        }
      ],
      "name": "getJob",
      "outputs": [
        {
          "name": "",
          "type": "bytes32"
        },
        {
          "name": "",
          "type": "string"
        },
        {
          "name": "",
          "type": "int8"
        },
        {
          "name": "",
          "type": "uint256"
        },
        {
          "name": "",
          "type": "uint256"
        },
        {
          "name": "",
          "type": "uint256"
        }
      ],
      "payable": false,
      "stateMutability": "view",
      "type": "function"
    }
  ],
  "bytecode": "0x608060405260008054600160a060020a031960a060020a60ff021990911674010000000000000000000000000000000000000000171633179055610863806100486000396000f3006080604052600436106100775763ffffffff7c01000000000000000000000000000000000000000000000000000000006000350416632f2770db811461007c5780636a79e82814610093578063a3907d71146100ff578063a6f9dae114610114578063bf22c45714610142578063d07e9f9014610203575b600080fd5b34801561008857600080fd5b50610091610218565b005b60408051602060046024803582810135601f81018590048502860185019096528585526100ed95833595369560449491939091019190819084018382808284375094975050843595505050602090920135915061025c9050565b60408051918252519081900360200190f35b34801561010b57600080fd5b5061009161050f565b34801561012057600080fd5b5061009173ffffffffffffffffffffffffffffffffffffffff6004351661056a565b34801561014e57600080fd5b5061015a6004356105ca565b604051808760001916600019168152602001806020018660000b60000b8152602001858152602001848152602001838152602001828103825287818151815260200191508051906020019080838360005b838110156101c35781810151838201526020016101ab565b50505050905090810190601f1680156101f05780820380516001836020036101000a031916815260200191505b5097505050505050505060405180910390f35b34801561020f57600080fd5b506100ed61074d565b60005473ffffffffffffffffffffffffffffffffffffffff16331461023c57600080fd5b6000805474ff000000000000000000000000000000000000000019169055565b600080610267610754565b60005474010000000000000000000000000000000000000000900460ff16151560011461029357600080fd5b6000851180156102a35750600084115b80156102af5750843410155b15156102ba57600080fd5b505060018054808201825560408051610120810182528281523360208083019182529282018a8152606083018a815260006080850181905260a085018b905260c085018b905260e085018a9052610100850181905260038054988901808255915284517fc2575a0e9e593c00f959f8c92f12db2869c3395a3b0502d05e2516446f71f85b600990990298890190815593517fc2575a0e9e593c00f959f8c92f12db2869c3395a3b0502d05e2516446f71f85c8901805473ffffffffffffffffffffffffffffffffffffffff191673ffffffffffffffffffffffffffffffffffffffff90921691909117905591517fc2575a0e9e593c00f959f8c92f12db2869c3395a3b0502d05e2516446f71f85d8801555180519596939591948694610408937fc2575a0e9e593c00f959f8c92f12db2869c3395a3b0502d05e2516446f71f85e909101929091019061079f565b50608082015160048201805460ff1916600183600381111561042657fe5b021790555060a0820151816005015560c0820151816006015560e08201518160070155610100820151816008015550505086600019167f9ff1ed7c524d7c6585739ff256427fe2afc544f06093ab44304672f71b03efd08787876040518080602001848152602001838152602001828103825285818151815260200191508051906020019080838360005b838110156104c95781810151838201526020016104b1565b50505050905090810190601f1680156104f65780820380516001836020036101000a031916815260200191505b5094505050505060405180910390a25095945050505050565b60005473ffffffffffffffffffffffffffffffffffffffff16331461053357600080fd5b6000805474ff0000000000000000000000000000000000000000191674010000000000000000000000000000000000000000179055565b60005473ffffffffffffffffffffffffffffffffffffffff16331461058e57600080fd5b6000805473ffffffffffffffffffffffffffffffffffffffff191673ffffffffffffffffffffffffffffffffffffffff92909216919091179055565b600060606000806000806003878154811015156105e357fe5b90600052602060002090600902016002015460038881548110151561060457fe5b906000526020600020906009020160030160038981548110151561062457fe5b600091825260209091206004600990920201015460ff16600381111561064657fe5b600380548b90811061065457fe5b90600052602060002090600902016005015460038b81548110151561067557fe5b90600052602060002090600902016006015460038c81548110151561069657fe5b600091825260209182902060076009909202010154855460408051601f6002600019610100600187161502019094169390930492830185900485028101850190915281815291928791908301828280156107315780601f1061070657610100808354040283529160200191610731565b820191906000526020600020905b81548152906001019060200180831161071457829003601f168201915b5050505050945095509550955095509550955091939550919395565b6001545b90565b60408051610120810182526000808252602082018190529181018290526060808201529060808201908152602001600081526020016000815260200160008152602001600081525090565b828054600181600116156101000203166002900490600052602060002090601f016020900481019282601f106107e057805160ff191683800117855561080d565b8280016001018555821561080d579182015b8281111561080d5782518255916020019190600101906107f2565b5061081992915061081d565b5090565b61075191905b8082111561081957600081556001016108235600a165627a7a723058206c49d51c75cea425a527df3cf6d461c89e84b890a096585bf48e91e1e91ddae50029",
  "source": "pragma solidity ^0.4.22;\n\n/** @title Ownable Contract */\ncontract Ownable {\n  address owner;\n\n  /** @dev Constructor to set the current contract deployer as an owner */\n  constructor() public {\n    owner = msg.sender;\n  }\n\n  /** @dev Allow to change current owner\n  * @param newOwner A replacement of current owner.\n   */\n  function changeOwner(address newOwner) public onlyOwner {\n    owner = newOwner;\n  }  \n\n  /** @dev modifier to check the current owner before executing a function when used */\n  modifier onlyOwner()\n  {\n    require(owner == msg.sender);\n    _;\n  }  \n}\n\n/** @title Circuit Breaker Contract */\ncontract CircuitBreaker is Ownable {\n  bool isEnabled = true;\n\n  /** @dev A modifier to check the circuit breaker status before allowing execution of a method */\n  modifier whenEnabled()\n  {\n    require(isEnabled == true);\n    _;\n  }\n\n  /** @dev Enable the circuit breaker flag*/\n  function enable() public onlyOwner {\n    isEnabled = true;\n  }\n\n  /** @dev Disable the circuit breaker flag*/\n  function disable() public onlyOwner {\n    isEnabled = false;\n  }\n}\n\n/** @title Main Job Contract */\ncontract JobContract is CircuitBreaker {\n\n  enum JobStatus {\n    active,\n    completed,\n    cancelled,\n    inDispute\n  }\n\n  struct Job {\n    uint id;\n    address owner;\n    bytes32 ref;\n    string docHash;\n    JobStatus status;\n    uint initialJobpot;\n    uint jobpot;\n    uint appFees;\n    uint numApps;\n  }\n\n  uint private index;\n  uint internal balance;\n  Job[] internal jobs;\n\n  /** @dev Notify a creation of a job */\n  event JobCreated(bytes32 indexed ref, string docHash, uint initialJobpotPrize, uint appFees);\n  \n  /** @dev Creates a job record.\n  * @param ref External record reference to identify the job record.\n  * @param docHash IPFS external record hash.\n  * @param initialJobpotPrize The initial prize offered by job creator.\n  * @param appFees The minimum application fees when someone submits/refer a candidate for the job.\n  * @return new job ID\n  */\n  function createJob(bytes32 ref, string docHash, uint initialJobpotPrize, uint appFees) \n    public \n    payable \n    whenEnabled\n    returns(uint)\n  {\n    require(initialJobpotPrize > 0 && appFees > 0 && msg.value >= initialJobpotPrize);\n\n    uint id = index++;\n\n    Job memory job = Job(id, msg.sender, ref, docHash, JobStatus.active, initialJobpotPrize, initialJobpotPrize, appFees, 0);\n\n    jobs.push(job);\n\n    emit JobCreated(ref, docHash, initialJobpotPrize, appFees);\n    \n    return id;\n  }\n\n  /** @dev Returns count of current jobs.\n  * @return totalJobsCount The current number of jobs.\n  */\n  function getJobsCount() public view returns(uint totalJobsCount) {\n    return index;\n  }\n\n  /** @dev Returns count of current jobs.\n  * @param id The ID of a job record to return, ID is equal to current job index.\n  * @return ref Reference to an external job record data.\n  * @return docHash The IPFS reference attached with the job that contains full job details.\n  * @return status The current job status (0=active, 1=completed, 2=cancelled, 3=inDispute).\n  * @return initialJobpot The initial jobpot prize posted by job owner.\n  * @return jobpot The accomulative jobpot prize (inititalJobPot + (number of job applications * appFees)).\n  * @return appFees The min app fees to submit/refer a candidate for a posted job.\n  */\n  function getJob(uint id) public view returns(bytes32, string, int8, uint, uint, uint) {\n    return ( jobs[id].ref, jobs[id].docHash, int8(jobs[id].status), jobs[id].initialJobpot, jobs[id].jobpot, jobs[id].appFees);\n  }\n}\n",
  "sourcePath": "/Users/user/Workspace/consensys/jobpot/truffle/contracts/JobContract.sol",
  "compiler": {
    "name": "solc",
    "version": "0.4.24+commit.e67f0147.Emscripten.clang"
  },
  "schemaVersion": "2.0.1",
  "updatedAt": "2018-08-26T17:40:53.476Z"
}