{
  "contractName": "JobContract",
  "abi": [
    {
      "constant": false,
      "inputs": [
        {
          "name": "ref",
          "type": "bytes32"
        },
        {
          "name": "docHash",
          "type": "string"
        },
        {
          "name": "initialJobpotPrize",
          "type": "uint256"
        },
        {
          "name": "appFees",
          "type": "uint256"
        }
      ],
      "name": "createJob",
      "outputs": [
        {
          "name": "",
          "type": "uint256"
        }
      ],
      "payable": true,
      "stateMutability": "payable",
      "type": "function"
    },
    {
      "constant": true,
      "inputs": [],
      "name": "getJobsCount",
      "outputs": [
        {
          "name": "",
          "type": "uint256"
        }
      ],
      "payable": false,
      "stateMutability": "view",
      "type": "function"
    },
    {
      "constant": true,
      "inputs": [
        {
          "name": "id",
          "type": "uint256"
        }
      ],
      "name": "getJob",
      "outputs": [
        {
          "name": "",
          "type": "bytes32"
        },
        {
          "name": "",
          "type": "string"
        },
        {
          "name": "",
          "type": "int8"
        },
        {
          "name": "",
          "type": "uint256"
        },
        {
          "name": "",
          "type": "uint256"
        },
        {
          "name": "",
          "type": "uint256"
        }
      ],
      "payable": false,
      "stateMutability": "view",
      "type": "function"
    }
  ],
  "bytecode": "0x608060405234801561001057600080fd5b506105ea806100206000396000f3006080604052600436106100565763ffffffff7c01000000000000000000000000000000000000000000000000000000006000350416636a79e828811461005b578063bf22c457146100c7578063d07e9f9014610188575b600080fd5b60408051602060046024803582810135601f81018590048502860185019096528585526100b595833595369560449491939091019190819084018382808284375094975050843595505050602090920135915061019d9050565b60408051918252519081900360200190f35b3480156100d357600080fd5b506100df600435610351565b604051808760001916600019168152602001806020018660000b60000b8152602001858152602001848152602001838152602001828103825287818151815260200191508051906020019080838360005b83811015610148578181015183820152602001610130565b50505050905090810190601f1680156101755780820380516001836020036101000a031916815260200191505b5097505050505050505060405180910390f35b34801561019457600080fd5b506100b56104d4565b6000806101a86104db565b5050600080546001808201835560408051610120810182528381523360208083019182529282018b8152606083018b81526080840188905260a084018b905260c084018b905260e084018a90526101008401889052600280549687018082559852835160099096027f405787fa12a823e0f2b7631cc41b3ba8828b3321ca811111fa75cd3aa3bb5ace810196875592517f405787fa12a823e0f2b7631cc41b3ba8828b3321ca811111fa75cd3aa3bb5acf8401805473ffffffffffffffffffffffffffffffffffffffff90921673ffffffffffffffffffffffffffffffffffffffff1990921691909117905590517f405787fa12a823e0f2b7631cc41b3ba8828b3321ca811111fa75cd3aa3bb5ad0830155518051959692959294869490936102f7937f405787fa12a823e0f2b7631cc41b3ba8828b3321ca811111fa75cd3aa3bb5ad1019290910190610526565b50608082015160048201805460ff1916600183600381111561031557fe5b021790555060a0820151600582015560c0820151600682015560e082015160078201556101009091015160089091015550909695505050505050565b6000606060008060008060028781548110151561036a57fe5b90600052602060002090600902016002015460028881548110151561038b57fe5b90600052602060002090600902016003016002898154811015156103ab57fe5b600091825260209091206004600990920201015460ff1660038111156103cd57fe5b600280548b9081106103db57fe5b90600052602060002090600902016005015460028b8154811015156103fc57fe5b90600052602060002090600902016006015460028c81548110151561041d57fe5b600091825260209182902060076009909202010154855460408051601f6002600019610100600187161502019094169390930492830185900485028101850190915281815291928791908301828280156104b85780601f1061048d576101008083540402835291602001916104b8565b820191906000526020600020905b81548152906001019060200180831161049b57829003601f168201915b5050505050945095509550955095509550955091939550919395565b6000545b90565b60408051610120810182526000808252602082018190529181018290526060808201529060808201908152602001600081526020016000815260200160008152602001600081525090565b828054600181600116156101000203166002900490600052602060002090601f016020900481019282601f1061056757805160ff1916838001178555610594565b82800160010185558215610594579182015b82811115610594578251825591602001919060010190610579565b506105a09291506105a4565b5090565b6104d891905b808211156105a057600081556001016105aa5600a165627a7a72305820bbf08bb215f874b96d7270ccdc0024192ddbc3c0b66060a4a7c0c899a2266a130029",
  "source": "pragma solidity ^0.4.22;\n\n\nimport \"./SafeMath.sol\";\n\ncontract JobContract {\n  using SafeMath for uint;\n\n  enum JobStatus {\n    active,\n    completed,\n    cancelled,\n    inDispute\n  }\n\n  struct Job {\n    uint id;\n    address owner;\n    bytes32 ref;\n    string docHash;\n    JobStatus status;\n    uint initialJobpot;\n    uint jobpot;\n    uint appFees;\n    uint numApps;\n  }\n\n  uint private index;\n  uint internal balance;\n  Job[] internal jobs;\n\n  function createJob(bytes32 ref, string docHash, uint initialJobpotPrize, uint appFees) public payable returns(uint) {\n    // require(initialJobpotPrize > 0 && appFees > 0 && msg.value >= initialJobpotPrize);\n\n    uint id = index++;\n\n    Job memory job = Job(id, msg.sender, ref, docHash, JobStatus.active, initialJobpotPrize, initialJobpotPrize, appFees, 0);\n\n    jobs.push(job);\n    \n    return id;\n  }\n\n  function getJobsCount() public view returns(uint) {\n    return index;\n  }\n\n  function getJob(uint id) public view returns(bytes32, string, int8, uint, uint, uint) {\n    return ( jobs[id].ref, jobs[id].docHash, int8(jobs[id].status), jobs[id].initialJobpot, jobs[id].jobpot, jobs[id].appFees);\n  }\n}\n",
  "sourcePath": "/Users/user/Workspace/consensys/jobpot/truffle/contracts/JobContract.sol",
  "compiler": {
    "name": "solc",
    "version": "0.4.24+commit.e67f0147.Emscripten.clang"
  },
  "schemaVersion": "2.0.1",
  "updatedAt": "2018-08-26T09:59:02.876Z"
}