{
  "contractName": "JobManagementContract",
  "abi": [
    {
      "constant": true,
      "inputs": [
        {
          "name": "jobId",
          "type": "uint256"
        }
      ],
      "name": "getJobApplicationsCount",
      "outputs": [
        {
          "name": "",
          "type": "uint256"
        }
      ],
      "payable": false,
      "stateMutability": "view",
      "type": "function"
    },
    {
      "constant": false,
      "inputs": [
        {
          "name": "ref",
          "type": "bytes32"
        },
        {
          "name": "docHash",
          "type": "string"
        },
        {
          "name": "initialJobpotPrize",
          "type": "uint256"
        },
        {
          "name": "appFees",
          "type": "uint256"
        }
      ],
      "name": "createJob",
      "outputs": [
        {
          "name": "",
          "type": "uint256"
        }
      ],
      "payable": true,
      "stateMutability": "payable",
      "type": "function"
    },
    {
      "constant": true,
      "inputs": [
        {
          "name": "jobId",
          "type": "uint256"
        },
        {
          "name": "appId",
          "type": "uint256"
        }
      ],
      "name": "getJobApplications",
      "outputs": [
        {
          "name": "",
          "type": "uint256"
        },
        {
          "name": "",
          "type": "int8"
        },
        {
          "name": "",
          "type": "address"
        },
        {
          "name": "",
          "type": "bytes32"
        }
      ],
      "payable": false,
      "stateMutability": "view",
      "type": "function"
    },
    {
      "constant": false,
      "inputs": [
        {
          "name": "jobId",
          "type": "uint256"
        },
        {
          "name": "docHash",
          "type": "bytes32"
        }
      ],
      "name": "apply",
      "outputs": [
        {
          "name": "",
          "type": "uint256"
        }
      ],
      "payable": true,
      "stateMutability": "payable",
      "type": "function"
    },
    {
      "constant": true,
      "inputs": [
        {
          "name": "id",
          "type": "uint256"
        }
      ],
      "name": "getJob",
      "outputs": [
        {
          "name": "",
          "type": "bytes32"
        },
        {
          "name": "",
          "type": "string"
        },
        {
          "name": "",
          "type": "int8"
        },
        {
          "name": "",
          "type": "uint256"
        },
        {
          "name": "",
          "type": "uint256"
        },
        {
          "name": "",
          "type": "uint256"
        }
      ],
      "payable": false,
      "stateMutability": "view",
      "type": "function"
    },
    {
      "constant": true,
      "inputs": [],
      "name": "getJobsCount",
      "outputs": [
        {
          "name": "",
          "type": "uint256"
        }
      ],
      "payable": false,
      "stateMutability": "view",
      "type": "function"
    },
    {
      "constant": false,
      "inputs": [
        {
          "name": "jobId",
          "type": "uint256"
        }
      ],
      "name": "cancelJob",
      "outputs": [
        {
          "name": "",
          "type": "bool"
        }
      ],
      "payable": false,
      "stateMutability": "nonpayable",
      "type": "function"
    },
    {
      "constant": false,
      "inputs": [
        {
          "name": "jobId",
          "type": "uint256"
        },
        {
          "name": "appId",
          "type": "uint256"
        }
      ],
      "name": "cancelApplication",
      "outputs": [
        {
          "name": "",
          "type": "bool"
        }
      ],
      "payable": false,
      "stateMutability": "nonpayable",
      "type": "function"
    },
    {
      "constant": false,
      "inputs": [
        {
          "name": "jobId",
          "type": "uint256"
        },
        {
          "name": "appId",
          "type": "uint256"
        }
      ],
      "name": "selectJobApplicationWinner",
      "outputs": [
        {
          "name": "",
          "type": "bool"
        }
      ],
      "payable": false,
      "stateMutability": "nonpayable",
      "type": "function"
    }
  ],
  "bytecode": "0x608060405234801561001057600080fd5b506111cc806100206000396000f3006080604052600436106100985763ffffffff7c01000000000000000000000000000000000000000000000000000000006000350416630237ba59811461009d5780631dffa3dc146100cc57806354ef6cba146100e45780636a79e8281461010e57806372b219d31461016857806393d48caa146101b6578063b4cbbd98146101d1578063bf22c457146101df578063d07e9f90146102a0575b600080fd5b3480156100a957600080fd5b506100b86004356024356102b5565b604080519115158252519081900360200190f35b3480156100d857600080fd5b506100b860043561048c565b3480156100f057600080fd5b506100fc600435610792565b60408051918252519081900360200190f35b60408051602060046024803582810135601f81018590048502860185019096528585526100fc9583359536956044949193909101919081908401838280828437509497505084359550505060209092013591506107a49050565b34801561017457600080fd5b5061018360043560243561094b565b60408051948552600093840b90930b6020850152600160a060020a03909116838301526060830152519081900360800190f35b3480156101c257600080fd5b506100b8600435602435610a39565b6100fc600435602435610c7e565b3480156101eb57600080fd5b506101f7600435610ed6565b604051808760001916600019168152602001806020018660000b60000b8152602001858152602001848152602001838152602001828103825287818151815260200191508051906020019080838360005b83811015610260578181015183820152602001610248565b50505050905090810190601f16801561028d5780820380516001836020036101000a031916815260200191505b5097505050505050505060405180910390f35b3480156102ac57600080fd5b506100fc611059565b600280546000913391859081106102c857fe5b6000918252602090912060016009909202010154600160a060020a0316146102ef57600080fd5b600060028054859081106102ff57fe5b600091825260209091206004600990920201015460ff16600381111561032157fe5b1461032b57600080fd5b600083815260046020526040812080548490811061034557fe5b600091825260209091206004600590920201015460ff16600381111561036757fe5b1461037157600080fd5b600160028481548110151561038257fe5b60009182526020909120600460099092020101805460ff191660018360038111156103a957fe5b02179055506000838152600460205260409020805460019190849081106103cc57fe5b60009182526020909120600460059092020101805460ff191660018360038111156103f357fe5b0217905550600083815260046020526040902080548390811061041257fe5b6000918252602090912060026005909202018101548154600160a060020a03909116916108fc918690811061044357fe5b9060005260206000209060090201600601549081150290604051600060405180830381858888f19350505050158015610480573d6000803e3d6000fd5b50600190505b92915050565b60008060008033600160a060020a03166002868154811015156104ab57fe5b6000918252602090912060016009909202010154600160a060020a0316146104d257600080fd5b600060028054879081106104e257fe5b600091825260209091206004600990920201015460ff16600381111561050457fe5b1461050e57600080fd5b6002808681548110151561051e57fe5b60009182526020909120600460099092020101805460ff1916600183600381111561054557fe5b021790555060008581526004602052604090205415156105ee5761059460028681548110151561057157fe5b90600052602060002090600902016005015460015461106090919063ffffffff16565b6001556002805433916108fc91889081106105ab57fe5b9060005260206000209060090201600501549081150290604051600060405180830381858888f193505050501580156105e8573d6000803e3d6000fd5b5061078a565b60646002868154811015156105ff57fe5b90600052602060002090600902016005015460190281151561061d57fe5b04925033600160a060020a03166108fc8460028881548110151561063d57fe5b906000526020600020906009020160050154039081150290604051600060405180830381858888f1935050505015801561067b573d6000803e3d6000fd5b506000858152600460205260409020548381151561069557fe5b049150600090505b6000858152600460205260409020548110156107855760008581526004602052604081208054839081106106cd57fe5b600091825260209091206004600590920201015460ff1660038111156106ef57fe5b141561071a57600280548690811061070357fe5b906000526020600020906009020160070154820191505b600085815260046020526040902080548290811061073457fe5b60009182526020822060026005909202010154604051600160a060020a039091169184156108fc02918591818181858888f1935050505015801561077c573d6000803e3d6000fd5b5060010161069d565b600193505b505050919050565b60009081526004602052604090205490565b6000806107af6110bd565b5050600080546001808201835560408051610120810182528381523360208083019182529282018b8152606083018b81526080840188905260a084018b905260c084018b905260e084018a90526101008401889052600280549687018082559852835160099096027f405787fa12a823e0f2b7631cc41b3ba8828b3321ca811111fa75cd3aa3bb5ace810196875592517f405787fa12a823e0f2b7631cc41b3ba8828b3321ca811111fa75cd3aa3bb5acf84018054600160a060020a0390921673ffffffffffffffffffffffffffffffffffffffff1990921691909117905590517f405787fa12a823e0f2b7631cc41b3ba8828b3321ca811111fa75cd3aa3bb5ad0830155518051959692959294869490936108f1937f405787fa12a823e0f2b7631cc41b3ba8828b3321ca811111fa75cd3aa3bb5ad1019290910190611108565b50608082015160048201805460ff1916600183600381111561090f57fe5b021790555060a0820151600582015560c0820151600682015560e082015160078201556101009091015160089091015550909695505050505050565b60008281526004602052604081208054829182918291908690811061096c57fe5b906000526020600020906005020160010154600460008881526020019081526020016000208681548110151561099e57fe5b600091825260209091206004600590920201015460ff1660038111156109c057fe5b60008881526004602052604090208054889081106109da57fe5b60009182526020808320600260059093020191909101548a8352600490915260409091208054600160a060020a039092169189908110610a1657fe5b906000526020600020906005020160030154935093509350935092959194509250565b600082815260046020526040812080548291339185908110610a5757fe5b6000918252602090912060026005909202010154600160a060020a031614610a7e57600080fd5b60006002805486908110610a8e57fe5b600091825260209091206004600990920201015460ff166003811115610ab057fe5b14610aba57600080fd5b6000848152600460205260408120805485908110610ad457fe5b600091825260209091206004600590920201015460ff166003811115610af657fe5b14610b0057600080fd5b600084815260046020526040902080546002919085908110610b1e57fe5b60009182526020909120600460059092020101805460ff19166001836003811115610b4557fe5b0217905550610b8f6064610b836019600288815481101515610b6357fe5b90600052602060002090600902016007015461107290919063ffffffff16565b9063ffffffff61109b16565b9050610bf5610bc782600287815481101515610ba757fe5b90600052602060002090600902016007015461106090919063ffffffff16565b6002805487908110610bd557fe5b90600052602060002090600902016006015461106090919063ffffffff16565b6002805486908110610c0357fe5b90600052602060002090600902016006018190555033600160a060020a03166108fc82600287815481101515610c3557fe5b906000526020600020906009020160070154039081150290604051600060405180830381858888f19350505050158015610c73573d6000803e3d6000fd5b506001949350505050565b600080806002805486908110610c9057fe5b600091825260209091206004600990920201015460ff166003811115610cb257fe5b1415610cbd57600080fd5b6002805485908110610ccb57fe5b9060005260206000209060090201600701543410151515610ceb57600080fd5b6002805485908110610cf957fe5b60009182526020808320600860099093020191909101805460018101909155868352600490915260409091208054919250829182908110610d3657fe5b906000526020600020906005020160000181905550836004600086815260200190815260200160002082815481101515610d6c57fe5b906000526020600020906005020160010181905550336004600086815260200190815260200160002082815481101515610da257fe5b60009182526020808320600592909202909101600201805473ffffffffffffffffffffffffffffffffffffffff1916600160a060020a039490941693909317909255858152600490915260408120805483908110610dfc57fe5b60009182526020909120600460059092020101805460ff19166001836003811115610e2357fe5b02179055506000848152600460205260409020805484919083908110610e4557fe5b600091825260209091206003600590920201015560028054610ead919086908110610e6c57fe5b906000526020600020906009020160070154600286815481101515610e8d57fe5b9060005260206000209060090201600601546110b090919063ffffffff16565b6002805486908110610ebb57fe5b60009182526020909120600660099092020101559392505050565b60006060600080600080600287815481101515610eef57fe5b906000526020600020906009020160020154600288815481101515610f1057fe5b9060005260206000209060090201600301600289815481101515610f3057fe5b600091825260209091206004600990920201015460ff166003811115610f5257fe5b600280548b908110610f6057fe5b90600052602060002090600902016005015460028b815481101515610f8157fe5b90600052602060002090600902016006015460028c815481101515610fa257fe5b600091825260209182902060076009909202010154855460408051601f60026000196101006001871615020190941693909304928301859004850281018501909152818152919287919083018282801561103d5780601f106110125761010080835404028352916020019161103d565b820191906000526020600020905b81548152906001019060200180831161102057829003601f168201915b5050505050945095509550955095509550955091939550919395565b6000545b90565b60008282111561106c57fe5b50900390565b600082151561108357506000610486565b5081810281838281151561109357fe5b041461048657fe5b600081838115156110a857fe5b049392505050565b8181018281101561048657fe5b60408051610120810182526000808252602082018190529181018290526060808201529060808201908152602001600081526020016000815260200160008152602001600081525090565b828054600181600116156101000203166002900490600052602060002090601f016020900481019282601f1061114957805160ff1916838001178555611176565b82800160010185558215611176579182015b8281111561117657825182559160200191906001019061115b565b50611182929150611186565b5090565b61105d91905b80821115611182576000815560010161118c5600a165627a7a7230582078b02c1b0960a5fe15756bd45c540ca9e2ea8f0ec4e9ee1f90d5e602524382530029",
  "source": "pragma solidity ^0.4.22;\n\nimport \"./SafeMath.sol\";\nimport \"./JobContract.sol\";\nimport \"./JobApplicationContract.sol\";\n\ncontract JobManagementContract is JobContract, JobApplicationContract {\n  using SafeMath for uint;\n\n  function cancelJob(uint jobId) public returns(bool) {\n    require(jobs[jobId].owner == msg.sender);\n    require(jobs[jobId].status == JobStatus.active);\n\n    jobs[jobId].status = JobStatus.cancelled;\n\n    if (jobApplications[jobId].length == 0) {\n      balance = balance.sub(jobs[jobId].initialJobpot);\n      msg.sender.transfer(jobs[jobId].initialJobpot);\n      return;\n    }\n\n    // deduct 25% from owner fees\n    uint cancellationFees = 25 * jobs[jobId].initialJobpot / 100;\n    msg.sender.transfer(jobs[jobId].initialJobpot - cancellationFees);\n\n    // distribute the owner cancellation fees to the job applications as a compensation\n    uint compensationFees = cancellationFees / jobApplications[jobId].length;\n    for (uint i = 0; i < jobApplications[jobId].length; i++) {\n\n      // for active applications, return the paid fees + compensation\n      if (jobApplications[jobId][i].status == ApplicationStatus.active) {\n        compensationFees += jobs[jobId].appFees;\n      }\n\n      jobApplications[jobId][i].owner.transfer(compensationFees);\n    }\n\n    return true;\n  }\n\n  function cancelApplication(uint jobId, uint appId) public returns(bool) {\n    require(jobApplications[jobId][appId].owner == msg.sender);\n    require(jobs[jobId].status == JobStatus.active);\n    require(jobApplications[jobId][appId].status == ApplicationStatus.active);\n\n    jobApplications[jobId][appId].status = ApplicationStatus.cancelled;    \n\n    // deduct 25% from app fees\n    uint cancellationFees = jobs[jobId].appFees.mul(25).div(100);\n    \n    // update jobpot\n    jobs[jobId].jobpot = jobs[jobId].jobpot.sub(jobs[jobId].appFees.sub(cancellationFees));\n\n    msg.sender.transfer(jobs[jobId].appFees - cancellationFees);\n    \n    return true;\n  }\n\n  function selectJobApplicationWinner(uint jobId, uint appId) public returns(bool) {\n    require(jobs[jobId].owner == msg.sender);\n    require(jobs[jobId].status == JobStatus.active);\n    require(jobApplications[jobId][appId].status == ApplicationStatus.active);\n\n    jobs[jobId].status = JobStatus.completed;\n    jobApplications[jobId][appId].status = ApplicationStatus.winner;\n    jobApplications[jobId][appId].owner.transfer(jobs[jobId].jobpot);\n\n    return true;\n  }\n}\n",
  "sourcePath": "/Users/user/Workspace/consensys/jobpot/truffle/contracts/JobManagement.sol",
  "compiler": {
    "name": "solc",
    "version": "0.4.24+commit.e67f0147.Emscripten.clang"
  },
  "schemaVersion": "2.0.1",
  "updatedAt": "2018-08-26T09:59:03.840Z"
}